:020000040000FA
:0600000028EF02F01200DF
:0A0006000100820400000104000064
:0400100014000000D8
:0C001400000000000000000000000000E0
:100020000000000000000000000000001200140E9C
:10003000E66E08EC02F0E55212003C0EE66E08ECAB
:1000400002F0E55212000F0EE66E8BEC01F0E55265
:10005000280EE66E65EC00F0E552400EE66E37ECD9
:1000600001F0E55204011F6B206B040E040120AF68
:1000700002D0D89003D01F5D000E20590AE2070E6F
:10008000E66E8BEC01F0E55204011F2B000E2023DD
:10009000ECD7F2EC01F0000901E0FBD7010EE66EAF
:1000A000040EE66EB4EC01F0E552E552F2EC01F01C
:1000B000000901E0FBD76C0EE66E040EE66E07EC5D
:0A00C00001F0E552E55203001200C2
:0600CA00D9CFE6FFDACFFA
:1000D000E6FFE1CFD9FFE2CFDAFFF00E81169316EB
:1000E000939C939A93988A9C8A9A8A981DEC00F024
:1000F000300E35D8050EE66EDBEC01F0E552300E21
:100100002ED8010EE66EDBEC01F0E552320E27D858
:100110002BD8FEE129D8FEE1FD0EDBCFE6FF8BEC0C
:1001200001F0E55221D8FEE1080E19D81DD8FEE1F4
:100130000F0E15D819D8FEE1010E11D815D8FEE121
:10014000040E0DD811D8FEE1800EE66E37EC01F0FA
:10015000E552E552E5CFDAFFE7CFD9FF1200E66EB0
:100160008BEC01F0E5521200F2EC01F000091200F4
:10017000060EF66E000EF76E000EF86E0401090012
:10018000F5501A6F0900F5501B6F03E11A6701D093
:100190003DD00900F550156F0900F550166F0900A4
:1001A000F550176F09000900F550E96E0900F55088
:1001B000EA6E090009000900F550186F0900F550B2
:1001C000196F09000900F6CF1CF4F7CF1DF4F8CF22
:1001D0001EF415C4F6FF16C4F7FF17C4F8FF040198
:1001E000185302E1195307E00900F550EE6E1807A5
:1001F000F8E21907F9D71CC4F6FF1DC4F7FF1EC4A7
:0E020000F8FF04011A07000E1B5BBFD71200A7
:02020E00D9CF46
:10021000E6FFDACFE6FFE1CFD9FFE2CFDAFF1BD866
:1002200014E0F2EC01F00009FCE115D8E66E62EC96
:1002300001F0E552D950FB0FE96EFF0EDA20EA6EAD
:10024000EE2A000EEE22EE22EAD7E552E5CFDAFFE3
:10025000E7CFD9FF1200FB0EDBCFF6FFFC0EDBCFA2
:0E026000F7FFFD0EDBCFF8FF0800F55012008F
:02026E00D9CFE6
:10027000E6FFDACFE6FFE1CFD9FFE2CFDAFFF00EFB
:1002800093168116FD0EDB508009E8380F0B0F0B1B
:1002900081128A9C8A9A0FD8F00E8116FD0EDB50CF
:1002A0000F0B811208D80F0E9312E552E5CFDAFF3B
:1002B000E7CFD9FF12000AEC00F08A880AEC00F0C0
:0402C0008A98120006
:0C02C400D9CFE6FFDACFE6FFE1CFD9FF8B
:1002D000E2CFDAFFF00E93168116FD0EDB380F0B1E
:1002E0000F0B81128A8A8A9C0FD8F00E8116FD0EA0
:1002F000DB500F0B811208D80F0E9312E552E5CF99
:10030000DAFFE7CFD9FF12000AEC00F08A880AEC86
:0603100000F08A981200C3
:0A031600D9CFE6FFDACFE6FFE1CF12
:10032000D9FFE2CFDAFFF00E93168116FD0EDB380F
:100330000F0B0F0B81128A9C8A9A0FD8F00E811630
:10034000FD0EDB500F0B811208D80F0E9312E552F1
:10035000E5CFDAFFE7CFD9FF12000AEC00F08A8878
:080360000AEC00F08A9812007B
:08036800D9CFE6FFDACFE6FF72
:10037000E1CFD9FFE2CFDAFF16D80FE0F2EC01F0BF
:100380000009FCE110D8E66E62EC01F0E552FC0ECB
:10039000DB2AFD0EF1E3DB2AEFD7E552E5CFDAFFEA
:1003A000E7CFD9FF1200FC0EDBCFE9FFFD0EDBCF5C
:0603B000EAFFEF5012000D
:0A03B600FF0EE350036EEF0E01D0BE
:1003C000F30EE76EE72EE2EF01F00C0E026EE76A25
:1003D000E72EE8EF01F0022EE7EF01F0032EE0EF49
:0403E00001F0120016
:0C03E4008A8C8A9A0AEC00F08A880AECE5
:1003F00000F081A602D003D8010C01D8000C8A9825
:100400000AEC00F08A880AEC00F08A988A9C1200B4
:10041000FF0EE350036E480E01D04C0EE76EE72E40
:10042000FED7E76AE72EFED7032EF7D700001200AB
:10043000000EF36E00EE00F0060E01D81200EA6026
:1004400002D0EE6AFCD7F350E9601200EE6AFCD7E6
:1004500013EE81F023EE81F0F86A019CB8EC00F015
:0C04600040EC02F023EC00F0FBD712008F
:04046C0050726F67F4
:1004700072616D206D656D6F727900000000000083
:02048000120068
:0E04820048656C6C6F20576F726C6400000050
:0604900000000000000066
:020000040030CA
:0100010022DC
:010003000EEE
:010006008178
:00000001FF
