:020000040000FA
:0600000011EF02F01200F6
:0A0006000100540400008000000017
:0400100014000000D8
:0C001400D9CFE6FFDACFE6FFE1CFD9FF3D
:10002000E2CFDAFFF00E81169316939C939A939881
:100030008A9C8A9A8A98BFEC00F0300E35D8050E5B
:10004000E66EC4EC01F0E552300E2ED8010EE66EDD
:10005000C4EC01F0E552320E27D82BD8FEE129D8A6
:10006000FEE1FD0EDBCFE6FF74EC01F0E55221D896
:10007000FEE1080E19D81DD8FEE10F0E15D819D8CB
:10008000FEE1010E11D815D8FEE1040E0DD811D8ED
:10009000FEE1800EE66E20EC01F0E552E552E5CF80
:1000A000DAFFE7CFD9FF1200E66E74EC01F0E552FB
:0A00B0001200DBEC01F00009120061
:0600BA00060EF66E000EBA
:1000C000F76E000EF86E00010900F550996F0900F7
:1000D000F5509A6F03E1996701D03DD00900F550C2
:1000E000946F0900F550956F0900F550966F09005F
:1000F0000900F550E96E0900F550EA6E09000900A3
:100100000900F550976F0900F550986F0900090034
:10011000F6CF9BF0F7CF9CF0F8CF9DF094C0F6FFA0
:1001200095C0F7FF96C0F8FF0001975302E198537E
:1001300007E00900F550EE6E9707F8E29807F9D747
:100140009BC0F6FF9CC0F7FF9DC0F8FF0001990718
:08015000000E9A5BBFD71200FC
:0801580000000000000000009F
:10016000000000000000000000000000000000008F
:100170001200140EE66EF1EC01F0E55212003C0E96
:10018000E66EF1EC01F0E55212000F0EE66E74EC33
:1001900001F0E552280EE66E0AEC00F0E552400E42
:1001A000E66E20EC01F0E552DBEC01F0000901E025
:1001B000FBD7800EE66E000EE66E9DEC01F0E55278
:1001C000E552DBEC01F0000901E0FBD73E0EE66EE4
:1001D000040EE66EF0EC00F0E552E552030012006A
:1001E000D9CFE6FFDACFE6FFE1CFD9FFE2CFDAFFE2
:1001F0001BD814E0DBEC01F00009FCE115D8E66E39
:100200004BEC01F0E552D950FB0FE96EFF0EDA20FE
:10021000EA6EEE2A000EEE22EE22EAD7E552E5CF94
:10022000DAFFE7CFD9FF1200FB0EDBCFF6FFFC0EA3
:10023000DBCFF7FFFD0EDBCFF8FF0800F550120013
:10024000D9CFE6FFDACFE6FFE1CFD9FFE2CFDAFF81
:10025000F00E93168116FD0EDB508009E8380F0B67
:100260000F0B81128A9C8A9A0FD8F00E8116FD0E10
:10027000DB500F0B811208D80F0E9312E552E5CF19
:10028000DAFFE7CFD9FF1200ACEC00F08A88ACECC3
:0602900000F08A98120044
:0A029600D9CFE6FFDACFE6FFE1CF93
:1002A000D9FFE2CFDAFFF00E93168116FD0EDB3890
:1002B0000F0B0F0B81128A8A8A9C0FD8F00E8116C1
:1002C000FD0EDB500F0B811208D80F0E9312E55272
:1002D000E5CFDAFFE7CFD9FF1200ACEC00F08A8857
:0802E000ACEC00F08A9812005A
:0802E800D9CFE6FFDACFE6FFF3
:1002F000E1CFD9FFE2CFDAFFF00E93168116FD0EA3
:10030000DB380F0B0F0B81128A9C8A9A0FD8F00EE4
:100310008116FD0EDB500F0B811208D80F0E9312C1
:10032000E552E5CFDAFFE7CFD9FF1200ACEC00F0E1
:0A0330008A88ACEC00F08A981200F5
:06033A00D9CFE6FFDACF87
:10034000E6FFE1CFD9FFE2CFDAFF16D80FE0DBEC12
:1003500001F00009FCE110D8E66E4BEC01F0E5522B
:10036000FC0EDB2AFD0EF1E3DB2AEFD7E552E5CFE9
:10037000DAFFE7CFD9FF1200FC0EDBCFE9FFFD0E5D
:08038000DBCFEAFFEF50120091
:08038800FF0EE350036EEF0EBF
:1003900001D0F30EE76EE72ECBEF01F00C0E026EEC
:1003A000E76AE72ED1EF01F0022ED0EF01F0032E25
:0603B000C9EF01F012008C
:0A03B6008A8C8A9AACEC00F08A8869
:1003C000ACEC00F081A602D003D8010C01D8000CDF
:1003D0008A98ACEC00F08A88ACEC00F08A988A9C91
:0203E000120009
:0E03E200FF0EE350036E480E01D04C0EE76E86
:1003F000E72EFED7E76AE72EFED7032EF7D70000D9
:020400001200E8
:0E040200000EF36E00EE00F0060E01D81200A0
:10041000EA6002D0EE6AFCD7F350E9601200EE6A9F
:02042000FCD707
:0E04220015EE00F025EE00F0F86A019C5DEC8E
:0E04300000F029EC02F0C5EC00F0FBD7120042
:02043E005072FA
:100440006F6772616D206D656D6F727900000000DD
:020450000000AA
:02045200120096
:0C04540048656C6C6F20576F726C640080
:08046000000000000000000094
:020000040030CA
:0100010022DC
:010003000EEE
:010006008178
:00000001FF
