:020000040000FA
:0600000093EF00F0120076
:020006000000F8
:08000800060EF66E000EF76E05
:10001000000EF86E03010900F550866F0900F550D7
:10002000876F03E1866701D03DD00900F550816FED
:100030000900F550826F0900F550836F090009002F
:10004000F550E96E0900F550EA6E09000900090053
:10005000F550846F0900F550856F09000900F6CF4F
:1000600088F3F7CF89F3F8CF8AF381C3F6FF82C311
:10007000F7FF83C3F8FF0301845302E1855307E0D0
:100080000900F550EE6E8407F8E28507F9D788C3BA
:10009000F6FF89C3F7FF8AC3F8FF03018607000E46
:0600A000875BBFD71200D0
:0A00A600936A010E03018B6F8C6B4F
:1000B0008C3504E28B510F08000E8C550CE38BC37A
:1000C00081FF190EE66E6CEC00F0E55203018B2BFC
:0800D000000E8C23EDD7120095
:0800D800FF0EE350036EEF0E72
:1000E00001D0F30EE76EE72E73EF00F00C0E026EF8
:1000F000E76AE72E79EF00F0022E78EF00F0032E8A
:0601000071EF00F0120097
:0A010600000EF36E00EE00F0060E8E
:1001100001D81200EA6002D0EE6AFCD7F350E96021
:060120001200EE6AFCD79C
:0A01260016EE00F026EE00F0F86A75
:10013000019C04EC00F0A1EC00F053EC00F0FBD7C4
:020140001200AB
:020142001200A9
:020000040030CA
:0100010022DC
:010003000EEE
:010006008178
:00000001FF
