:020000040000FA
:0600000070EF02F0120097
:0A00060001000C05000001040000D9
:040010000C000000E0
:0C001400000000000000000000000000E0
:100020000000000000000000000000001200140E9C
:10003000E66E50EC02F0E55212003C0EE66E50EC1B
:1000400002F0E5521200836A956A280EE66EBFEC54
:1000500000F0E5523AEC02F00009FCE1E66A0CEC33
:1000600001F0E5520401176B186B040E18AF02D0B3
:10007000D89003D0175D000E18590AE2070EE66EFD
:1000800079EC01F0E5520401172B000E1823EDD78F
:100090000F0EE66E79EC01F0E5521200D4DF3AEC77
:1000A00002F0000901E0FBD7010EE66E040EE66ED9
:1000B00002EC02F0E552E5523AEC02F0000901E0F0
:1000C000FBD7FC0EE66E040EE66EE0EC01F0E552A6
:1000D000E5523AEC02F0000901E0FBD70300120000
:1000E000060EF66E000EF76E000EF86E04010900A3
:1000F000F550126F0900F550136F03E1126701D03C
:100100003DD00900F5500D6F0900F5500E6F090044
:10011000F5500F6F09000900F550E96E0900F55020
:10012000EA6E090009000900F550106F0900F5504A
:10013000116F09000900F6CF14F4F7CF15F4F8CFCA
:1001400016F40DC4F6FF0EC4F7FF0FC4F8FF040148
:10015000105302E1115307E00900F550EE6E10074D
:10016000F8E21107F9D714C4F6FF15C4F7FF16C457
:0E017000F8FF04011207000E135BBFD7120048
:02017E00D9CFD7
:10018000E6FFE1CFD9FFF00E831695169594959270
:1001900095908C948C928C901DEC00F0300E33D89E
:1001A000050EE66E23EC02F0E552300E2CD8010E5F
:1001B000E66E23EC02F0E552320E25D829D8FEE196
:1001C00027D8FEE1FE0EDBCFE6FF79EC01F0E55229
:1001D0001FD8FEE1080E17D81BD8FEE10F0E13D86A
:1001E00017D8FEE1010E0FD813D8FEE1040E0BD88C
:1001F0000FD8FEE1800EE66E0CEC01F0E552E55200
:10020000E7CFD9FF1200E66E79EC01F0E55212005B
:080210003AEC02F000091200B3
:08021800D9CFE6FFE1CFD9FFC9
:10022000F00E95168316FE0EDB508009E8380F0B92
:100230000F0B83128C948C920DD8F00E8316FE0E49
:10024000DB500F0B831206D80F0E9512E552E7CF45
:10025000D9FF12000AEC00F08C800AEC00F08C90C0
:0202600012008A
:0E026200D9CFE6FFE1CFD9FFF00E9516831637
:10027000FE0EDB504009E8380F0B0F0B83128C94F5
:100280008C920DD8F00E8316FE0EDB500F0B8312EE
:1002900006D80F0E9512E552E7CFD9FF12000AECEF
:0C02A00000F08C800AEC00F08C90120042
:0402AC00D9CFE6FFC1
:1002B000E1CFD9FFF00E95168316FE0EDB380F0B3B
:1002C0000F0B83128C828C940DD8F00E8316FE0EC9
:1002D000DB500F0B831206D80F0E9512E552E7CFB5
:1002E000D9FF12000AEC00F08C800AEC00F08C9030
:0202F0001200FA
:0E02F200D9CFE6FFE1CFD9FFF00E95168316A7
:10030000FE0EDB380F0B0F0B83128C948C920DD8E2
:10031000F00E8316FE0EDB500F0B831206D80F0E65
:100320009512E552E7CFD9FF12000AEC00F08C805D
:080330000AEC00F08C901200B1
:08033800D9CFE6FFE1CFD9FFA8
:10034000E6528C848C820AEC00F08C800AEC00F07F
:100350008338F00BF00BDF6E8C900AEC00F08C8091
:100360000AEC00F00F0E8314DF128C908C928C94A8
:0C037000DF50E552E552E7CFD9FF120044
:04037C00D9CFE6FFF0
:10038000E1CFD9FFE6528C848C920AEC00F08C808D
:100390000AEC00F08338F00BF00BDF6E8C900AEC67
:1003A00000F08C800AEC00F00F0E8314DF128C90AA
:1003B0008C947F0EDF14E552E552E7CFD9FF12008F
:1003C000D9CFE6FFE1CFD9FF14D80FE03AEC02F025
:1003D0000009FCE10ED8E66E56EC01F0E552FD0E88
:1003E000DB2AFE0EF1E3DB2AEFD7E552E7CFD9FF98
:1003F0001200FD0EDBCFF6FFFE0EDBCFF7FF08008D
:04040000F5501200A1
:0C040400D9CFE6FFE1CFD9FF14D80FE0FC
:100410003AEC02F00009FCE10ED8E66E56EC01F071
:10042000E552FD0EDB2AFE0EF1E3DB2AEFD7E552A3
:10043000E7CFD9FF1200FD0EDBCFE9FFFE0EDBCFC9
:06044000EAFFEF5012007C
:0A044600FF0EE350036EEF0E01D02D
:10045000F30EE76EE72E2AEF02F00C0E026EE76A4B
:10046000E72E30EF02F0022E2FEF02F0032E28EFDE
:0404700002F0120084
:0C0474008C848C920AEC00F08C800AEC66
:1004800000F083A602D003D8010C01D8000C8C9098
:100490000AEC00F08C800AEC00F08C908C94120036
:1004A000FF0EE350036E480E01D04C0EE76EE72EB0
:1004B000FED7E76AE72EFED7032EF7D7000012001B
:1004C000000EF36E00EE00F0060E01D81200EA6096
:1004D00002D0EE6AFCD7F350E9601200EE6AFCD756
:1004E00013EE81F023EE81F0F86A019C70EC00F0CD
:0C04F00085EC02F04EEC00F0FBD712008F
:0404FC0050726F6764
:0A05000072616D206D656D6F7279F8
:02050A001200DD
:04050C0048656C6C66
:080510006F20576F726C64004C
:020000040030CA
:0100010022DC
:010003000EEE
:010006008178
:00000001FF
