:020000040000FA
:0600000027EF02F01200E0
:020006000000F8
:08000800060EF66E000EF76E05
:10001000000EF86E04010900F550066F0900F55056
:10002000076F03E1066701D03DD00900F550016F6D
:100030000900F550026F0900F550036F090009002F
:10004000F550E96E0900F550EA6E09000900090053
:10005000F550046F0900F550056F09000900F6CF4F
:1000600008F4F7CF09F4F8CF0AF401C4F6FF02C48C
:10007000F7FF03C4F8FF0401045302E1055307E04E
:100080000900F550EE6E0407F8E20507F9D708C439
:10009000F6FF09C4F7FF0AC4F8FF04010607000EC3
:0600A000075BBFD7120050
:0A00A600D9CFE6FFE1CFD9FF0F0E1E
:1000B000831695169594959295908C948C928C902D
:1000C000B5EC00F0300E33D8050EE66EF0EC01F022
:1000D000E552300E2CD8010EE66EF0EC01F0E55240
:1000E000320E25D829D8FEE127D8FEE1FE0EDBCF5F
:1000F000E6FF46EC01F0E5521FD8FEE1080E17D8E6
:100100001BD8FEE10F0E13D817D8FEE1010E0FD851
:1001100013D8FEE1040E0BD80FD8FEE1800EE66E78
:10012000DBEC00F0E552E552E7CFD9FF1200E66EB6
:1001300046EC01F0E552120035EC02F00009120025
:1001400000000000000000000000000000000000AF
:100150000000000000000000000000001200050E7A
:10016000E66E07EC02F0E55212000F0EE66E07ECA9
:1001700002F0E552120035EC02F00009FCE1280E15
:10018000E66E53EC00F0E552F0DF35EC02F00009CA
:10019000FCE1400EE66EDBEC00F0E5521200EBDF16
:1001A00035EC02F00009FCE1840EE66E040EE66E0A
:0601B000ADEC01F0FFD7E9
:0A01B600D9CFE6FFE1CFD9FF0F0E0D
:1001C00095168316FE0EDB508009F00B83128C947B
:1001D0008C920ED80F0E8316FE0EDB38F00BF00B50
:1001E000831206D8F00E9512E552E7CFD9FF120020
:0E01F000A0EC00F08C80A0EC00F08C901200CF
:0201FE00D9CF57
:10020000E6FFE1CFD9FF0F0E95168316FE0EDB50E9
:100210004009F00B83128C948C920ED80F0E83162B
:10022000FE0EDB38F00BF00B831206D8F00E9512A1
:10023000E552E7CFD9FF1200A0EC00F08C80A0ECD3
:0602400000F08C9012009A
:0A024600D9CFE6FFE1CFD9FF0F0E7C
:1002500095168316FE0EDB50F00B83128C828C9465
:100260000ED80F0E8316FE0EDB38F00BF00B831248
:1002700006D8F00E9512E552E7CFD9FF1200A0EC98
:0C02800000F08C80A0EC00F08C901200CC
:04028C00D9CFE6FFE1
:10029000E1CFD9FF0F0E95168316FE0EDB50F00B43
:1002A00083128C948C920ED80F0E8316FE0EDB38C0
:1002B000F00BF00B831206D8F00E9512E552E7CF43
:1002C000D9FF1200A0EC00F08C80A0EC00F08C9024
:0202D00012001A
:0E02D200D9CFE6FFE1CFD9FFE6528C848C82B3
:1002E000A0EC00F08C80A0EC00F0F00E8314DF6E28
:1002F0008C90A0EC00F08C80A0EC00F083380F0B09
:100300000F0BDF128C908C928C94DF50E552E552EB
:06031000E7CFD9FF120047
:0A031600D9CFE6FFE1CFD9FFE65290
:100320008C848C92A0EC00F08C80A0EC00F0F00E9D
:100330008314DF6E8C90A0EC00F08C80A0EC00F0B9
:1003400083380F0B0F0BDF128C908C947F0EDF1411
:0A035000E552E552E7CFD9FF120095
:06035A00D9CFE6FFE1CF60
:10036000D9FF14D80FE035EC02F00009FCE10ED8FB
:10037000E66E23EC01F0E552FD0EDB2AFE0EF1E302
:10038000DB2AEFD7E552E7CFD9FF1200FD0EDBCF16
:0E039000F6FFFE0EDBCFF7FF0800F55012005F
:02039E00D9CFB5
:1003A000E6FFE1CFD9FF14D80FE035EC02F00009E9
:1003B000FCE10ED8E66E23EC01F0E552FD0EDB2ADF
:1003C000FE0EF1E3DB2AEFD7E552E7CFD9FF1200AB
:1003D000FD0EDBCFE9FFFE0EDBCFEAFFEF50120090
:1003E000FF0EE350036EEF0E01D0F30EE76EE72E23
:1003F000F7EF01F00C0E026EE76AE72EFDEF01F059
:0E040000022EFCEF01F0032EF5EF01F01200CA
:02040E00FF0EDF
:10041000E350036E480E01D04C0EE76EE72EFED778
:0E042000E76AE72EFED7032EF7D70000120082
:02042E00000EBE
:10043000F36E00EE00F0060E01D81200EA6002D062
:0E044000EE6AFCD7F350E9601200EE6AFCD7BA
:02044E0013EEAB
:1004500081F023EE81F0F86A019C04EC00F048EC96
:0A04600002F0CFEC00F0FBD7120011
:06046A008C848C9203D883
:1004700002D88C94000CA0EC00F08C80A0EC00F072
:040480008C9012004A
:0C04840048656C6C6F20576F726C640050
:02049000120058
:020000040030CA
:0100010022DC
:010003000EEE
:010006008178
:00000001FF
