:020000040000FA
:0600000031EF02F01200D6
:0A0006000100940400000104000052
:0400100014000000D8
:0C0014008A50100B02E0838001D0839022
:100020008A50200B02E0838201D083928A50400BD9
:1000300002E0838401D083948150836E120000001B
:1000400000000000000000000000000000000000B0
:100050000000000000001200140EE66E11EC02F029
:10006000E55212003C0EE66E11EC02F0E552120071
:10007000D1DF280EE66E6EEC00F0E552FBEC01F0ED
:100080000009FCE1400EE66E40EC01F0E55204018F
:100090001F6B206B040E20AF02D0D89003D01F5DE1
:1000A000000E20590AE2070EE66E94EC01F0E552CC
:1000B00004011F2B000E2023EDD7010EE66E040E67
:1000C000E66EBDEC01F0E552E5527E0EE66E040EE2
:0C00D000E66E10EC01F0E552E552120063
:0400DC00D9CFE6FF93
:1000E000DACFE6FFE1CFD9FFE2CFDAFFF00E8116DB
:1000F0009316939C939A93988A9C8A9A8A9832EC46
:1001000000F0300E35D8050EE66EE4EC01F0E55255
:10011000300E2ED8010EE66EE4EC01F0E552320E00
:1001200027D82BD8FEE129D8FEE1FD0EDBCFE6FF74
:1001300094EC01F0E55221D8FEE1080E19D81DD843
:10014000FEE10F0E15D819D8FEE1010E11D815D811
:10015000FEE1040E0DD811D8FEE1800EE66E40ECF3
:1001600001F0E552E552E5CFDAFFE7CFD9FF120003
:10017000E66E94EC01F0E5521200FBEC01F0000990
:0201800012006B
:0E018200060EF66E000EF76E000EF86E04010B
:100190000900F5501A6F0900F5501B6F03E11A674B
:1001A00001D03DD00900F550156F0900F550166FCC
:1001B0000900F550176F09000900F550E96E0900B4
:1001C000F550EA6E090009000900F550186F0900A2
:1001D000F550196F09000900F6CF1CF4F7CF1DF494
:1001E000F8CF1EF415C4F6FF16C4F7FF17C4F8FFC6
:1001F0000401185302E1195307E00900F550EE6EAF
:100200001807F8E21907F9D71CC4F6FF1DC4F7FF59
:100210001EC4F8FF04011A07000E1B5BBFD71200B3
:10022000D9CFE6FFDACFE6FFE1CFD9FFE2CFDAFFA1
:100230001BD814E0FBEC01F00009FCE115D8E66ED8
:100240006BEC01F0E552D950FB0FE96EFF0EDA209E
:10025000EA6EEE2A000EEE22EE22EAD7E552E5CF54
:10026000DAFFE7CFD9FF1200FB0EDBCFF6FFFC0E63
:10027000DBCFF7FFFD0EDBCFF8FF0800F5501200D3
:10028000D9CFE6FFDACFE6FFE1CFD9FFE2CFDAFF41
:10029000F00E93168116FD0EDB508009E8380F0B27
:1002A0000F0B81128A9C8A9A0FD8F00E8116FD0ED0
:1002B000DB500F0B811208D80F0E9312E552E5CFD9
:1002C000DAFFE7CFD9FF12001FEC00F08A881FEC9D
:0602D00000F08A98120004
:0A02D600D9CFE6FFDACFE6FFE1CF53
:1002E000D9FFE2CFDAFFF00E93168116FD0EDB3850
:1002F0000F0B0F0B81128A8A8A9C0FD8F00E811681
:10030000FD0EDB500F0B811208D80F0E9312E55231
:10031000E5CFDAFFE7CFD9FF12001FEC00F08A88A3
:080320001FEC00F08A981200A6
:08032800D9CFE6FFDACFE6FFB2
:10033000E1CFD9FFE2CFDAFFF00E93168116FD0E62
:10034000DB380F0B0F0B81128A9C8A9A0FD8F00EA4
:100350008116FD0EDB500F0B811208D80F0E931281
:10036000E552E5CFDAFFE7CFD9FF12001FEC00F02E
:0A0370008A881FEC00F08A98120042
:06037A00D9CFE6FFDACF47
:10038000E6FFE1CFD9FFE2CFDAFF16D80FE0FBECB2
:1003900001F00009FCE110D8E66E6BEC01F0E552CB
:1003A000FC0EDB2AFD0EF1E3DB2AEFD7E552E5CFA9
:1003B000DAFFE7CFD9FF1200FC0EDBCFE9FFFD0E1D
:0803C000DBCFEAFFEF50120051
:0803C800FF0EE350036EEF0E7F
:1003D00001D0F30EE76EE72EEBEF01F00C0E026E8C
:1003E000E76AE72EF1EF01F0022EF0EF01F0032EA5
:0603F000E9EF01F012002C
:0A03F6008A8C8A9A1FEC00F08A88B6
:100400001FEC00F081A602D003D8010C01D8000C2B
:100410008A981FEC00F08A881FEC00F08A988A9C6A
:020420001200C8
:0E042200FF0EE350036E480E01D04C0EE76E45
:10043000E72EFED7E76AE72EFED7032EF7D7000098
:020440001200A8
:0E044200000EF36E00EE00F0060E01D8120060
:10045000EA6002D0EE6AFCD7F350E9601200EE6A5F
:02046000FCD7C7
:0E04620013EE81F023EE81F0F86A019CC1ECEC
:0E04700000F049EC02F038EC00F0FBD712006F
:02047E005072BA
:100480006F6772616D206D656D6F7279000000009D
:0204900000006A
:02049200120056
:0C04940048656C6C6F20576F726C640040
:0804A000000000000000000054
:020000040030CA
:0100010022DC
:010003000EEE
:010006008178
:00000001FF
