:020000040000FA
:060000003AEF02F01200CD
:020006000000F8
:08000800060EF66E000EF76E05
:10001000000EF86E00010900F550856F0900F550DB
:10002000866F03E1856701D03DD00900F550806FF0
:100030000900F550816F0900F550826F0900090031
:10004000F550E96E0900F550EA6E09000900090053
:10005000F550836F0900F550846F09000900F6CF51
:1000600087F0F7CF88F0F8CF89F080C0F6FF81C025
:10007000F7FF82C0F8FF0001835302E1845307E0D9
:100080000900F550EE6E8307F8E28407F9D787C0C0
:10009000F6FF88C0F7FF89C0F8FF00018507000E52
:0600A000865BBFD71200D1
:0A00A600D9CFE6FFE1CFD9FF0F0E1E
:1000B000831695169594959295908C948C928C902D
:1000C000B3EC00F0300E33D8050EE66EEDEC01F027
:1000D000E552300E2CD8010EE66EEDEC01F0E55243
:1000E000320E25D829D8FEE127D8FEE1FE0EDBCF5F
:1000F000E6FF43EC01F0E5521FD8FEE1080E17D8E9
:100100001BD8FEE10F0E13D817D8FEE1010E0FD851
:1001100013D8FEE1040E0BD80FD8FEE1800EE66E78
:10012000D8EC00F0E552E552E7CFD9FF1200E66EB9
:1001300043EC01F0E552120004EC02F00009120059
:1001400000000000000000000000000000000000AF
:1001500000000000000000001200050EE66E1AEC20
:1001600002F0E55212000F0EE66E1AEC02F0E552B4
:100170001200280EE66E53EC00F0E55204EC02F09B
:100180000009FCE1060EE66E43EC01F0E5521200B8
:10019000F0DF04EC02F00009FCE1E66AD8EC00F0C4
:1001A000E552900EE66E040EE66EAAEC01F0FFD763
:1001B000D9CFE6FFE1CFD9FF0F0E95168316FE0EBD
:1001C000DB508009F00B83128C948C920ED80F0EAA
:1001D0008316FE0EDB38F00BF00B831206D8F00E00
:1001E0009512E552E7CFD9FF1200A0EC00F08C8009
:0801F000A0EC00F08C9012005D
:0801F800D9CFE6FFE1CFD9FFEA
:100200000F0E95168316FE0EDB504009F00B83127D
:100210008C948C920ED80F0E8316FE0EDB38F00BEA
:10022000F00B831206D8F00E9512E552E7CFD9FFF6
:100230001200A0EC00F08C80A0EC00F08C9012007A
:10024000D9CFE6FFE1CFD9FF0F0E95168316FE0E2C
:10025000DB50F00B83128C828C940ED80F0E831619
:10026000FE0EDB38F00BF00B831206D8F00E951261
:10027000E552E7CFD9FF1200A0EC00F08C80A0EC93
:0602800000F08C9012005A
:0A028600D9CFE6FFE1CFD9FF0F0E3C
:1002900095168316FE0EDB50F00B83128C948C9215
:1002A0000ED80F0E8316FE0EDB38F00BF00B831208
:1002B00006D8F00E9512E552E7CFD9FF1200A0EC58
:0C02C00000F08C80A0EC00F08C9012008C
:0402CC00D9CFE6FFA1
:1002D000E1CFD9FFE6528C848C82A0EC00F08C80B8
:1002E000A0EC00F0F00E8314DF6E8C90A0EC00F018
:1002F0008C80A0EC00F083380F0B0F0BDF128C907A
:100300008C928C94DF50E552E552E7CFD9FF120072
:10031000D9CFE6FFE1CFD9FFE6528C848C92A0ECD6
:1003200000F08C80A0EC00F0F00E8314DF6E8C9057
:10033000A0EC00F08C80A0EC00F083380F0B0F0BCA
:10034000DF128C908C947F0EDF14E552E552E7CFDC
:04035000D9FF1200BF
:0C035400D9CFE6FFE1CFD9FF14D80FE0AD
:1003600004EC02F00009FCE10ED8E66E20EC01F08E
:10037000E552FD0EDB2AFE0EF1E3DB2AEFD7E55254
:10038000E7CFD9FF1200FD0EDBCFF6FFFE0EDBCF6D
:08039000F7FF0800F550120010
:08039800D9CFE6FFE1CFD9FF48
:1003A00014D80FE004EC02F00009FCE10ED8E66E70
:1003B00020EC01F0E552FD0EDB2AFE0EF1E3DB2A14
:1003C000EFD7E552E7CFD9FF1200FD0EDBCFE9FFF3
:0A03D000FE0EDBCFEAFFEF50120033
:0603DA00FF0EE350036E6C
:1003E000EF0E01D0F30EE76EE72EF4EF01F00C0EE6
:1003F000026EE76AE72EFAEF01F0022EF9EF01F044
:08040000032EF2EF01F01200DF
:080408008C848C92A0EC00F042
:100410008C80A0EC00F083AE02D003D8010C01D890
:10042000000C8C90A0EC00F08C80A0EC00F08C9084
:040430008C94120096
:0C043400FF0EE350036E480E01D04C0E8A
:10044000E76EE72EFED7E76AE72EFED7032EF7D733
:040450000000120096
:0C045400000EF36E00EE00F0060E01D862
:100460001200EA6002D0EE6AFCD7F350E960120095
:04047000EE6AFCD75D
:0C04740015EE00F025EE00F0F86A019C87
:1004800004EC00F04EEC02F0C8EC00F0FBD71200D8
:0B049000486F6C61204D756E646F00BA
:02049C0012004C
:020000040030CA
:0100010022DC
:010003000EEE
:010006008178
:00000001FF
